:100000000C9400200C9431200C9431200C9431205D
:100010000C9431200C9431200C9431200C9431201C
:100020000C9431200C9431200C9431200C9431200C
:100030000C9431200D94560E0C9431200C943120E8
:100040000C9431200C944ABE0C9431200C94312035
:100050000C9431200C9431200C94F6B40D940C0EB9
:100060000C9431200C941E740C9414740C94312054
:100070000C9431200C9431200C9431200C943120BC
:100080000C9431200C9431200C9431200C943120AC
:100090000C9431200C9431200C9431200D94801359
:1000A0000C9431200C9431200C9431200C9431208C
:1000B0000C9431200C9431200C9431200C9431207C
:1000C0000C9431200C9431200C9431200C9431206C
:1000D0000C9431200C9431200C9431200C9431205C
:1000E0000C943120084AD73B3BCE016E84BCBFFD47
:1000F000C12F3D6C74319ABD56833DDA3D00C77FF8
:1001000011BED9E4BB4C3E916BAAAABE0000008090
:100110003F05A84CCDB2D44EB93836A9020C50B91F
:10012000918688083CA6AAAA2ABE000000803F004B
:100130000D949E0D0D94A30C0D940E0D0D94A00C1A
:100140000D947D0C0D945D0D0D94B70C0D948A0DDE
:100150000D94940C0D94BB0C0D94670D0D941B0D18
:100160000D94490D0D94820C0D94800D0D94A518DD
:100170000D94980C0D94C10C0D949C0C0D94A80D2D
:100180000D94410D0D94160D0D94390D0D94B30C75
:100190000D94D30C0D94CF0C0D94530D0D94C50CF0
:1001A0000D94760D0D942F0D0D94AD0C0D94250D21
:1001B0000D94A90C0D9466200D94C90C0D94940D0A
:1001C0004E414E494E495459494E46CDCCCC3D0A3C
:1001D000D7233C17B7D13877CC2B329595E6241F1F
:1001E000B14F0A000020410000C84200401C4620D8
:1001F000BCBE4CCA1B0E5AAEC59D7400407A10F3AB
:100200005A00A0724E18090010A5D4E80000E87644
:1002100048170000E40B54020000CA9A3B0000009B
:10022000E1F505000080969800000040420F0000B4
:1002300000A08601000000102700000000E8030075
:100240000000006400000000000A0000000000013F
:1002500000000000002C76D888DC674F0823DFC13F
:10026000DFAE59E1B1B796E5E3E453C63AE65199FA
:100270007696E8E6C28426EB898C9B62ED407C6F23
:10028000FCEFBC9C9F40F2BAA56FA5F490055A2ADA
:10029000F75C936B6CF9676DC11BFCE0E40D47FEE6
:1002A000F520E6B500D0ED902E03009435770500DB
:1002B00080841E080000204E0A000000C80C333362
:1002C00033330F986E12831141EF8D2114893BE671
:1002D0005516CFFEE6DB18D1844B381BF77C1D90FA
:1002E0001DA4BBE424203284725E228100C9F12463
:1002F000ECA1E53D27434F4D4D554E4943415449EF
:100300004F4E0044525952554E004552524F52538F
:1003100000494E464F004543484F00554E4C4F4113
:10032000442046494C414D454E54004C4F414420D9
:1003300046494C414D454E540046494C414D454E71
:1003400054204348414E47450041425300504C41E0
:10035000004572726F722077726974696E672074DB
:100360006F20454550524F4D210A0053544F505075
:1003700045442E20005072696E7465722073746F4C
:10038000707065642064756520746F206572726F8B
:1003900072732E2046697820746865206572726FCA
:1003A0007220616E6420757365204D39393920746F
:1003B0006F20726573746172742E202854656D709D
:1003C00065726174757265206973207265736574F6
:1003D0002E205365742069742061667465722072E2
:1003E000657374617274696E67290A004E6F2043E9
:1003F0006865636B73756D2077697468206C696ECE
:1004000065206E756D6265722C204C617374204C92
:10041000696E653A20004E6F20436865636B7375A3
:100420006D2077697468206C696E65206E756D62E9
:1004300065722C204C617374204C696E653A200003
:10044000636865636B73756D206D69736D6174634B
:10045000682C204C617374204C696E653A20004C06
:10046000696E65204E756D626572206973206E6FCE
:1004700074204C617374204C696E65204E756D62FA
:1004800065722B312C204C617374204C696E653A77
:1004900020004D3131300053657269616C207374F6
:1004A00061747573206D69736D617463680A0053BC
:1004B000442072656164206572726F720A002121A6
:1004C000204B494C4C206361757365642062792030
:1004D000746F6F206D75636820696E6163746976EF
:1004E000652074696D65202D2063757272656E7468
:1004F00020636F6D6D616E643A2000627573793AA6
:100500002070617573656420666F7220696E707506
:10051000740A00627573793A20706175736564209E
:10052000666F7220757365720A00627573793A207E
:1005300070726F63657373696E670A004D656469F5
:10054000612052656D6F766564004D656469612058
:10055000496E73657274656400506C6561736520E3
:100560005265736574005052494E544552204841BB
:100570004C5445440025533A20255300706F77654D
:10058000726F6666004B494C4C45442E20005072F9
:10059000696E7465722068616C7465642E206B6985
:1005A0006C6C28292063616C6C6564210A006563AA
:1005B000686F3A004572726F723A004F4646004FBC
:1005C0004E000A4D6561737572656420706F696EC7
:1005D00074733A0A00337833206D6573682E205A9D
:1005E000206F66667365743A2000486F74656E64A8
:1005F00020746F6F20636F6C640A004F46460A00D8
:1006000046616465204865696768742000426564D6
:10061000204C6576656C696E6720004661696C6583
:100620006420746F20656E61626C65204265642091
:100630004C6576656C696E670A004D65736820428B
:100640006564204C6576656C20646174613A0A00CB
:10065000496E76616C6964206D6573682E0A0020AE
:100660006E6F7420656E74657265642E0A00507238
:100670006F62696E6720506F696E74002553202584
:10068000692F256900206F6620004D424C204732BB
:100690003920706F696E742000290A004A206F7536
:1006A00074206F662072616E67652028302D0029E6
:1006B0000A0049206F7574206F662072616E67654D
:1006C0002028302D004D6573682070726F62696E4E
:1006D0006720646F6E65004D6573682070726F628D
:1006E000696E6720646F6E652E0A005374617274C0
:1006F000206D6573682070726F62696E672077691C
:10070000746820224732392053312220666972737F
:10071000742E0A004732395332004732380A4732C2
:1007200039533200686173206E6F20646174612EEA
:100730000A004D65736820426564204C6576656CDF
:10074000696E67200053206F7574206F6620726198
:100750006E67652028302D35292E0A0020440020A0
:10076000204D323030205300202844697361626C80
:100770006564293A0046696C616D656E7420736525
:100780007474696E67730020204D32303120580038
:100790004D617820416363656C65726174696F6E49
:1007A0002028756E6974732F7332290020204D3212
:1007B00030332058004D617820666565647261743D
:1007C00065732028756E6974732F73290020520099
:1007D00020204D323034205000416363656C6572D7
:1007E0006174696F6E2028756E6974732F73322976
:1007F0002028503C7072696E742D616363656C3E95
:1008000020523C726574726163742D616363656C20
:100810003E20543C74726176656C2D616363656C37
:100820003E2900204A0020540020530020204D3251
:100830003035204200416476616E63656420284251
:100840003C6D696E5F7365676D656E745F74696D2D
:10085000655F75733E20533C6D696E5F66656564C8
:10086000726174653E20543C6D696E5F747261768E
:10087000656C5F66656564726174653E204A3C6ABA
:10088000756E635F6465763E290020440020490050
:1008900020204D333031205000486F74656E642045
:1008A0005049440020440020490020204D3330347A
:1008B0002050004265642050494400205800202008
:1008C0004D61783A2000200020204D696E3A2000CA
:1008D000203B200020204D323131205300536F66E1
:1008E0007420656E6473746F70730020204D39300E
:1008F0003720580053746570706572206D6F746F87
:10090000722063757272656E7473007061757365C1
:100910006400496E736572742066696C616D656E02
:100920007420616E642070726573732062757474D4
:100930006F6E0A00507265737320627574746F6E07
:1009400020746F2068656174206E6F7A7A6C650A16
:1009500000496E736572742066696C616D656E74B2
:1009600020616E6420707265737320627574746F99
:100970006E0A00726573756D656400203B0020553A
:100980000020204D363033204C0046696C616D6587
:100990006E74206C6F61642F756E6C6F6164003BC8
:1009A000200020496E76616C6964206578747275E8
:1009B000646572200047322F4733206261642070E3
:1009C0006172616D65746572730A00536C65657060
:1009D0002E2E2E004D65736820706F696E74206F27
:1009E0007574206F662072616E67650A00436C69DA
:1009F000636B20746F20526573756D652E2E2E000B
:100A00004E6F204D6F76652E00456E642066696CD2
:100A100065206C6973740A00426567696E206669B7
:100A20006C65206C6973740A004E6F206D65646993
:100A3000610A00706175736500286E6F2066696CCD
:100A400065290043757272656E742066696C653A3B
:100A500020005344207072696E74696E6720627959
:100A6000746520004E6F74205344207072696E7458
:100A7000696E670A002E0A0044656C6574696F6EC2
:100A8000206661696C65642C2046696C653A2000BB
:100A900046696C652064656C657465643A005072E3
:100AA000696E742074696D653A20000A537461742C
:100AB000733A2046696C616D656E74207573656468
:100AC0003A20002C204C6F6E67657374206A6F6249
:100AD0003A2000546F74616C2074696D653A20008F
:100AE00053746174733A20002C204661696C65640C
:100AF0003A20002C2046696E69736865643A2000CC
:100B00005072696E74733A200053746174733A20A2
:100B1000006F6B006F666600160311030A03030380
:100B2000F50244454255473A004D31313220536871
:100B30007574646F776E004D31313320530050531C
:100B40003A300A0050533A310A004E334453504170
:100B500043452057616E68616F2044362B424D201B
:100B60004F46462E002F2F004D31343520533C691F
:100B70006E6465783E206F7574206F662072616EBA
:100B800067652028302D31290A003F4A206F75748F
:100B9000206F662072616E67652028302E3031200C
:100BA000746F20302E33290A0046523A0020466CDA
:100BB0006F773A20004D424C2041646A757374206F
:100BC0005A0064697300656E0043290A0061626C13
:100BD000656420286D696E2074656D702000436F18
:100BE0006C64206578747275646573206172652029
:100BF000004D65736820706F696E74206F75742086
:100C00006F662072616E67650A004D34323120696B
:100C10006E636F727265637420706172616D65746A
:100C200065722075736167650A004F666673657447
:100C300073204170706C696564004572723A20548B
:100C40006F6F206661722100546F6F2066617220A1
:100C500066726F6D207265666572656E6365207081
:100C60006F696E740A00454550524F4D204F4B0A34
:100C7000002E0A002028302D313029002076616CAA
:100C80007565206F7574206F662072616E676500F0
:100C9000416476616E6365204B3D004F46460A0015
:100CA00043617365206C696768743A2000496E7609
:100CB000616C69642065787472756465720A0020DD
:100CC000204D323036205800486F6D65206F6666C3
:100CD000736574004361703A004D4541545041437F
:100CE0004B00434F4F4C45525F54454D5045524188
:100CF00054555245004348414D4245525F54454D7D
:100D00005045524154555245004241425953544571
:100D10005050494E470041524353004D4F54494FA4
:100D20004E5F4D4F44455300544845524D414C5F32
:100D300050524F54454354494F4E004C4F4E475F1D
:100D400046494C454E414D45004155544F52455042
:100D50004F52545F53445F535441545553005344CE
:100D60005F57524954450052455045415400534441
:100D7000434152440050524F4D50545F53555050D0
:100D80004F525400484F53545F414354494F4E5FB4
:100D9000434F4D4D414E445300454D455247454EFE
:100DA00043595F50415253455200434153455F4CB4
:100DB000494748545F4252494748544E45535300AF
:100DC000544F47474C455F4C494748545300534F95
:100DD0004654574152455F504F574552004255497E
:100DE0004C445F50455243454E54004C4556454C8B
:100DF000494E475F44415441005A5F50524F42456B
:100E00000052554E4F5554004155544F4C45564590
:100E10004C005052494E545F4A4F420050524F4787
:100E200052455353004155544F5245504F52545F11
:100E300054454D50004155544F5245504F52545F08
:100E4000504F5300564F4C554D4554524943004561
:100E50004550524F4D0042494E4152595F46494C10
:100E6000455F5452414E5346455200534552494105
:100E70004C5F584F4E5F584F4646004649524D57BB
:100E80004152455F4E414D453A4D61726C696E204D
:100E90006275676669782D322E302E7820284F6370
:100EA0007420323920323032312031373A35393AF4
:100EB00031362920534F555243455F434F44455FD8
:100EC00055524C3A6769746875622E636F6D2F5581
:100ED0006C74696D616B65722F4D61726C696E2007
:100EE00050524F544F434F4C5F56455253494F4E0B
:100EF0003A312E30204D414348494E455F545950B8
:100F0000453A4E334453504143452057616E686122
:100F10006F2044362B424D2045585452554445527B
:100F20005F434F554E543A3120555549443A636515
:100F30006465326132662D343161322D3437343894
:100F40002D396231322D63353563363266333637AB
:100F500066660A004D383400446F6E652070726911
:100F60006E74696E672066696C650A004D373700DC
:100F70004D3331002569730025696D2025697300A3
:100F80002569682025696D2025697300256964201D
:100F90002569682025696D202569730025697920F8
:100FA000256964202569682025696D2025697300FD
:100FB000436F6F6C696E672E2E2E004865617469F1
:100FC0006E672E2E2E0045312025530020573A0003
:100FD00042656420436F6F6C696E672E2E2E00424F
:100FE00065642048656174696E672E2E2E00236447
:100FF0006566696E652044454641554C545F006204
:101000006564004B6420004B6920004B7020005049
:101010004944204175746F74756E652066696E6908
:1010200073686564212050757420746865206C6154
:101030007374204B702C204B6920616E64204B64CC
:1010400020636F6E7374616E74732066726F6D20AF
:1010500062656C6F7720696E746F20436F6E66698E
:101060006775726174696F6E2E680A00504944207A
:101070004175746F74756E65206661696C65642175
:101080002074696D656F75740A005049442041757C
:10109000746F74756E65206661696C656421205497
:1010A000656D706572617475726520746F6F20680C
:1010B0006967680A00504944204379636C6573008E
:1010C00025532025692F256900204B643A200020F4
:1010D0004B693A2000204B703A200020436C61732A
:1010E00073696320504944200A00204E6F206F76B8
:1010F000657273686F6F740A002054753A2000207F
:101100004B753A2000206D61783A2000206D696EA1
:101110003A200020643A200020626961733A20007E
:101120005761697420666F722068656174207570FC
:101130002E2E2E00504944204175746F74756E65D3
:101140002073746172740A00504944204175746FB1
:1011500074756E65206661696C6564212054656DE7
:10116000706572617475726520746F6F206869674D
:10117000680A00504944204175746F74756E6500AB
:10118000504944204175746F74756E6520666169BD
:101190006C65642120426164206865617465722019
:1011A00069640A004572723A207574663820666F69
:1011B0006E74206E6F7420696E697469616C697AEF
:1011C00065642E004572723A207574663820666F29
:1011D0006E74206E6F7420696E697469616C697ACF
:1011E00065642E004572723A207574663820666F09
:1011F0006E74206E6F7420696E697469616C697AAF
:1012000065642E0042656400456E636C6F73757291
:1012100065002568753A25303268750025303268DA
:10122000753A25303268750025687564202530329E
:1012300068753A253032687500657272001FE020CB
:101240001020102010102010202010201030300806
:1012500040048003001FE03FF03FF03FF01FE01F1D
:10126000E03FF03FF03FF00FC0078003003FFFF08A
:1012700038007030FC3020FC102078102030102C0A
:1012800000D02E31D02F7BD02F7BD02E31D02C0010
:10129000D020301020781020FC1030FC3038007046
:1012A0003FFFF03FFFF03800703186302387102772
:1012B00087902F87D02F03D02030102078102078EF
:1012C000102030102F03D02F87D02787902387102E
:1012D0003186303800703FFFF01FFFF81FFFF80421
:1012E000104002082002082004104008208010410D
:1012F000001041000820800410400000001FFFF88B
:101300001FFFF863616E63656C005072696E742034
:1013100041626F72746564004D32350050617573BF
:10132000696E672E2E2E00726573756D65004D32E5
:101330003400454550524F4D2056657273696F6EAB
:10134000204572726F7200454550524F4D20496ED4
:10135000646578204572726F7200454550524F4D5A
:1013600020435243204572726F72003F0049676EFE
:101370006F726500526573657400496E69746961C6
:101380006C697A6520454550524F4D0045005A0022
:101390005859004C6F6164206D6D00556E6C6F6123
:1013A00064206D6D0046696C2E204469612E0045F5
:1013B00020696E206D6D5E3300416476616E6365F9
:1013C000204B004D333033205531204525692053C3
:1013D000256900504944204175746F74756E65200D
:1013E0002A005049442D44202A005049442D4920C8
:1013F0002A005049442D50202A00200820466163CD
:1014000074002008204D6178002008204D696E008E
:101410004F6666004F6E004175746F74656D7000A5
:10142000452073746570732F6D6D005A2053746579
:1014300070732F6D6D00592053746570732F6D6D2F
:1014400000582053746570732F6D6D004164766190
:101450006E6365642053657474696E6773004669D2
:101460006C616D656E740054656D70657261747544
:10147000726500447269766520537472656E677494
:10148000680053746570732F6D6D00436F6E6669ED
:101490006775726174696F6E003F004E65787420E5
:1014A000436F726E657200446F6E65004E657874AE
:1014B00000486F6D696E672058595A005265737401
:1014C0006F72652044656661756C7473004C6F6162
:1014D000642053657474696E67730053746F72652A
:1014E0002053657474696E677300416476616E633E
:1014F00065642053657474696E6773004D61696E2D
:10150000004D37303220542564004D3630302042B3
:101510003020542564004D373032203B2564004D87
:1015200037303120542564004368616E676520467A
:10153000696C616D656E74005072656865617420D8
:10154000437573746F6D0050726568656174202413
:10155000004261636B004D363030423000436F6EA5
:1015600074696E7565005075726765206D6F726580
:1015700000524553554D45204F5054494F4E533A14
:10158000005052494E5420504155534544002020AC
:101590004E6F7A7A6C653A20005061726B696E67A3
:1015A0002E2E2E0000005761697420666F7200664F
:1015B000696C616D656E74206368616E6765007447
:1015C0006F207374617274005761697420666F7262
:1015D0000066696C616D656E7420756E6C6F616418
:1015E00000004E6F7A7A6C652068656174696E6779
:1015F00000506C6561736520776169742E2E2E0032
:1016000000507265737320627574746F6E00746F2E
:101610002068656174206E6F7A7A6C650000496E8F
:10162000736572742066696C616D656E7400616EBD
:101630006420707265737320627574746F6E0074C9
:101640006F20636F6E74696E7565005761697420F1
:10165000666F720066696C616D656E74206C6F6197
:10166000640000507265737320427574746F6E006D
:10167000746F20726573756D65207072696E740089
:10168000005761697420666F72207072696E740011
:10169000746F20726573756D652E2E2E0000576174
:1016A000697420666F720066696C616D656E742086
:1016B000707572676500003E2000256C642E2569F8
:1016C0006D00457874727564656420546F74616C44
:1016D000003E20004C6F6E67657374204A6F622075
:1016E00054696D65003E2000546F74616C20507227
:1016F000696E742054696D6500436F6D706C65741C
:101700006564003A20005072696E7420436F756EF4
:1017100074003A20003131350035004245443A200A
:101720004550434F53203130304B0052756E617736
:1017300061792057617463683A204F4E004D61789B
:101740002054656D7000323930004D696E2054654B
:101750006D7000350045313A2050743130302055DD
:101760006C74694D422035760050535500506F77A8
:10177000657220537570706C790050726F746F636E
:101780006F6C00312E3000426175640032353030AC
:10179000303000556C74696D616B657220322E7843
:1017A000004D657368204C6576656C696E67004511
:1017B00078747275646572730031006D61726C6962
:1017C0006E66772E6F7267004E3344535041434527
:1017D0002057616E68616F2044362B424D003230D5
:1017E00032312D31302D3239006275676669782DBE
:1017F000322E302E78004D61726C696E0050726925
:101800006E74657220537461747300546865726DF0
:101810006973746F727300426F61726420496E66FF
:101820006F005072696E74657220496E666F004D6C
:1018300061696E004F6666004F6E004C69676874A0
:10184000204272696768746E65737300436F6E66D9
:10185000696775726174696F6E0043617365204CCE
:1018600069676874004D61696E003F004261636B97
:101870000053746F70003F004E4F00594553004EA7
:101880006F204D65646961005072696E74206672E4
:101890006F6D204D65646961004368616E67652006
:1018A0004D65646961004D3231004D383000537729
:1018B0006974636820506F776572204F6666004DCB
:1018C0003831004C69676874730041626F75742029
:1018D0005072696E746572004368616E6765204678
:1018E000696C616D656E7400436F6E6669677572D1
:1018F0006174696F6E0054656D70657261747572A4
:1019000065004D6F74696F6E00526573756D65206B
:101910005072696E740053776974636820506F77F2
:101920006572204F6E0054756E650053746F7020A1
:101930005072696E74005061757365205072696EE3
:101940007400496E666F2053637265656E003F00D8
:101950005374617274205072696E740043616E63D7
:10196000656C005072696E740043616E6E6F742016
:10197000656E746572207375626469723A20000244
:10198000202E2E004D61696E002100486F74656E37
:101990006420746F6F20636F6C64004261636B003E
:1019A00050726F63656564004D6F74696F6E0044BB
:1019B000697361626C652053746570706572730041
:1019C0004D383400426564205472616D6D696E67F4
:1019D000004732385A004732385900486F6D652049
:1019E000400047323858004175746F20486F6D656C
:1019F00000473238004D61696E005072656865615C
:101A000074202420456E64005072656865617420FE
:101A100024204265640054656D706572617475724E
:101A200065004D034903436F6F6C646F776E005020
:101A300072656865617420240046616E205370658C
:101A4000656400426564004E6F7A7A6C65004D6192
:101A5000696E004261627973746570205A00466C49
:101A60006F770046616E205370656564004265645F
:101A7000004E6F7A7A6C65005370656564004D6145
:101A8000696E00000C0F00FE07022503BB017FFEFC
:101A900008FE08FE05080806000040F0C88888987F
:101AA0007810050808060000C0F88888888888F83B
:101AB0000505050600012030F8302005080806005D
:101AC000002070F820202020E00509090600FF20F2
:101AD00070A8A8B888887020070505070001D86C91
:101AE000366CD80509090600FFF8A8888888888818
:101AF000A8F8050A0A0600FE205050505088A8A8F1
:101B0000887003030306000340A040FFFFFFFFFFB0
:101B1000FFFFFFFFFFFFFFFFFFFFFFFFFFFFFFFFD5
:101B2000FF0000000605FF01070706020080808015
:101B300080800080030303060105A0A0A00506061F
:101B400006000050F85050F8500509090600FF2023
:101B500070A8A07028A87020050707060000C8C854
:101B6000102040989805070706000040A0A040A854
:101B700090680103030602058080800309090601BD
:101B8000FF2040408080804040200309090601FF7B
:101B900080404020202040408005070706000020AC
:101BA000A8702070A8200505050600012020F82057
:101BB000200203030601FFC0408005010106000367
:101BC000F8020202060100C0C0050707060000086F
:101BD000101020404080050707060000708898A874
:101BE000C8887003070706010040C040404040E03D
:101BF000050707060000708808102040F805070751
:101C0000060000F808103008887005070706000075
:101C100010305090F81010050707060000F880F00B
:101C200008088870050707060000304080F08888A3
:101C300070050707060000F808101020202005078F
:101C400007060000708888708888700507070600FE
:101C50000070888878081060020505060100C0C081
:101C600000C0C00206060601FFC0C000C0408003DD
:101C700005050601012040804020050303060002FF
:101C8000F800F803050506010180402040800507A3
:101C900007060000708810202000200507070600B6
:101CA000007088B8A8B88070050707060000708823
:101CB00088F8888888050707060000F048487048BB
:101CC00048F005070706000070888080808870054E
:101CD0000707060000F04848484848F0050707068F
:101CE0000000F88080F08080F8050707060000F803
:101CF0008080F08080800507070600007088808063
:101D0000988870050707060000888888F888888802
:101D1000030707060100E04040404040E005070798
:101D2000060000381010101090600507070600002C
:101D30008890A0C0A09088050707060000808080DA
:101D4000808080F805070706000088D8A888888862
:101D5000880507070600008888C8A89888880507AE
:101D600007060000708888888888700507070600C5
:101D700000F08888F08080800507070600007088E2
:101D80008888A89068050707060000F08888F0A0FA
:101D90009088050707060000708880700888700525
:101DA0000707060000F8202020202020050707064E
:101DB00000008888888888887005070706000088E2
:101DC0008888885050200507070600008888888882
:101DD000A8A850050707060000888850205088886A
:101DE00005070706000088885020202020050707E7
:101DF000060000F80810204080F80309090601FFDA
:101E0000E080808080808080E005070706000080F9
:101E10004040201010080309090601FFE02020209F
:101E200020202020E005030306000520508805013E
:101E3000010600FEF80303030601058040200505A6
:101E400005060000700878887805070706000080FE
:101E500080F0888888F0050505060000708080887D
:101E60007005070706000008087888888878050547
:101E7000050600007088F080700507070600003036
:101E80004840E04040400507070600FE708888880B
:101E90007808700507070600008080F08888888829
:101EA0000307070601004000C0404040E004090964
:101EB0000601FE1000301010101090600507070694
:101EC000000080808890E09088030707060100C02A
:101ED0004040404040E0050505060000D0A8A8A805
:101EE000A8050505060000B0C88888880505050610
:101EF000000070888888700507070600FEF0888853
:101F000088F080800507070600FE788888887808B2
:101F100008050505060000B0C88080800505050697
:101F2000000078807008F00507070600002020F800
:101F30002020201805050506000088888898680577
:101F40000505060000888888502005050506000064
:101F50008888A8A8500505050600008850205088EC
:101F60000507070600FE8888885020408005050583
:101F7000060000F8102040F80309090601FF204080
:101F8000404080404040200109090602FF808080D7
:101F90008080808080800309090601FF80404040E6
:101FA000204040408005030306000248A890FF003F
:101FB000060900FE06020F038401FFFE07FE06FE6F
:101FC00005070700000040F0C8889878100507074B
:101FD000000000C0F888888888F805050500000121
:101FE0002030F830200507070000002070F820207E
:101FF00020E00507070000002070A8B888702006C0
:102000000505000000B0D86CD8B00508080000FF36
:10201000F8A888888888A8F80509090000FE2050DB
:1020200050505088A8887003030300000340A0406C
:10203000FFFFFFFFFFFFFFFFFFFFFFFFFFFFFFFFB0
:10204000FFFFFFFFFFFF0000000605FF0106060679
:102050000200808080800080030303060103A0A0AB
:10206000A00507070600FF5050F850F8505005092A
:10207000090600FE2070A8A07028A8702006080895
:102080000600FF40A848102048540805070706002E
:10209000FF609090609890680103030602038080BF
:1020A000800207070602FF40808080808040020790
:1020B000070602FF804040404040800505050600BD
:1020C000008850F850880505050600002020F820FB
:1020D000200204040602FEC0404080050101060003
:1020E00002F8020202060200C0C004060606010051
:1020F0001010204080800406060601006090909039
:10210000906003060606010040C0404040E004061F
:10211000060601006090102040F00406060601004B
:10212000F020601010E00506060600001030509008
:10213000F810040606060100F080E01010E0040626
:10214000060601006080E09090600406060601002B
:10215000F0101020404004060606010060906090D8
:102160009060040606060100609090701060020501
:1021700005060200C0C000C0C00207070602FEC07C
:10218000C000C04040800505050600001860806062
:1021900018050303060001F800F805050506000010
:1021A000C0300830C004070706010060901060408E
:1021B00000400506060600007090A8B08070050675
:1021C00006060000205088F88888050606060000EC
:1021D000F088F08888F00406060601006090808090
:1021E0009060040606060100E090909090E00406DE
:1021F00006060100F080E08080F00406060601007B
:10220000F080E0808080040606060100609080B0C7
:1022100090600406060601009090F09090900306EE
:1022200006060100E040404040E0050606060000CA
:1022300038101010906004060606010090A0C0A09F
:1022400090900406060601008080808080F00506DC
:102250000606000088D8A8A888880406060601009B
:1022600090D0B0909090050606060000708888888F
:102270008870040606060100E09090E08080040764
:10228000070601FF609090D0B060100406060601BA
:1022900000E09090E09090040606060100609040F7
:1022A000209060050606060000F82020202020046B
:1022B00006060601009090909090600406060601C4
:1022C00000909090F060600506060600008888A8DF
:1022D000A8D88805060606000088502020508805EA
:1022E0000606060000888850202020040606060105
:1022F00000F010204080F0030606060100E0808018
:102300008080E00406060601008080402010100353
:102310000606060100E020202020E0050303060059
:10232000032050880501010600FEF80202020602A1
:1023300004804004040406010070909070040606B6
:102340000601008080E09090E00404040601007023
:1023500080807004060606010010107090907004D2
:10236000040406010060B0C07004060606010020E7
:102370005040E040400406060601FE609090701058
:10238000600406060601008080E090909003060637
:102390000601004000C04040E00308080601FE209E
:1023A0000060202020A0400406060601008080A0D6
:1023B000C0A090030606060100C040404040E00572
:1023C0000404060000D0A8A888040404060100E064
:1023D000909090040404060100609090600406064A
:1023E0000601FEE09090E080800406060601FE7083
:1023F0009090701010040404060100A0D0808004A6
:10240000040406010070C030E00406060601004026
:1024100040E04050200404040601009090907004B5
:102420000404060100909060600504040600008822
:10243000A8A85004040406010090606090040606F9
:102440000601FE909090709060040404060100F074
:102450002040F00307070601002040408040402054
:102460000107070602FF80808080808080030707C5
:102470000601008040402040408004020206010323
:1024800050A0FFFFFFFFFFFFFFFFFFFFFFFFFFFF6A
:10249000FFFFFFFFFFFFFFFFFFFFFFFFFFFFFFFF4C
:1024A000FFFFFF0000000605FF0106060602008090
:1024B00000808080800406060601FF2070A0A070C6
:1024C000200507070600FF304840F04040F80505AA
:1024D00005060000A8508850A805060606000088DA
:1024E00050F820F8200107070602FF808080008056
:1024F00080800407070601FF708060906010E00391
:102500000101060105A0060707060000788494A4CF
:1025100094847803050506010160A06000E00505CC
:10252000050600002850A05028040303060100F00F
:102530001010040101060102F006070706000078EA
:1025400084B4A4A48478040101060105F004030303
:102550000601026090600507070600FF2020F820B2
:102560002000F803050506010140A02040E0030516
:1025700005060101C0204020C002020206020440FC
:10258000800405050601FF9090B0D0800506060680
:10259000000078E8E86828280101010602028002AC
:1025A00002020602FE408003050506010140C0400C
:1025B00040E003050506010140A04000E0050505D7
:1025C000060000A0502850A00508080600FF40C0E3
:1025D0004050703078100508080600FF40C0405099
:1025E000680810380508080600FFC0204030F030A9
:1025F0007810040707060100200020608090600525
:10260000070706000040202050708888050707064D
:102610000000102020507088880507070600002061
:102620005020507088880507070600002850205069
:1026300070888805070706000050002050708888C1
:102640000507070600002050205070888805060600
:1026500006000078A0F0A0A0B80408080601FE60FB
:10266000908080906020400407070601004020F021
:1026700080E080F00407070601002040F080E08041
:10268000F00407070601002050F080E080F0040706
:10269000070601005000F080E080F0030707060104
:1026A000008040E0404040E0030707060100204072
:1026B000E0404040E003070706010040A0E0404042
:1026C00040E0030707060100A000E0404040E005AD
:1026D00006060600007048E848487004070706012F
:1026E0000050A090D0B09090040707060100402051
:1026F0006090909060040707060100204060909071
:1027000090600407070601002050609090906004DC
:10271000070706010050A06090909060040707062C
:10272000010050006090909060050505060000884B
:10273000502050880408080601FF1070B0B0D0D0B7
:10274000E08004070706010040209090909060040C
:10275000070706010020409090909060040707064C
:1027600001002050909090906004070706010050EF
:102770000090909090600507070600001020885098
:1027800020202004060606010080E09090E08004EE
:1027900006060601006090A0A090A00407070601AD
:1027A0000040200070909070040707060100204050
:1027B0000070909070040707060100205000709090
:1027C000907004070706010050A0007090907004FC
:1027D000060606010050007090907004070706017D
:1027E000002050207090907005040406000070A82E
:1027F000B0780406060601FE708080702040040751
:102800000706010040200060B0C070040707060101
:102810000020400060B0C07004070706010020508F
:102820000060B0C070040606060100500060B0C031
:1028300070030707060100804000C04040E0030726
:1028400007060100204000C04040E00307070601E2
:102850000040A000C04040E0030606060100A000C2
:10286000C04040E0040707060100306010709090FF
:102870006004070706010050A000E0909090040754
:1028800007060100402000609090600407070601E1
:10289000002040006090906004070706010020506F
:1028A000006090906004070706010050A00060904F
:1028B00090600406060601005000609090600505D7
:1028C000050600002000F800200404040601007042
:1028D000B0D0E004070706010040200090909070FF
:1028E000040707060100204000909090700407073D
:1028F000060100205000909090700406060601002A
:102900005000909090700409090601FE204000904C
:1029100090907090600408080601FE8080E090901E
:10292000E080800408080601FE50009090907090AE
:1029300060486F6D696E67204661696C6564006F01
:1029400070656E00545249474745524544003A204D
:10295000007A5F6D696E00795F6D696E00785F6DFA
:10296000696E005265706F7274696E6720656E647F
:1029700073746F70207374617475730A0020746FC0
:102980006F206C6F6E6720657874727573696F6EF7
:102990002070726576656E7465640A0020636F6CE2
:1029A0006420657874727573696F6E2070726576D5
:1029B000656E7465640A00000000000000000000FD
:1029C0000000005761726E696E673A20486F6D694A
:1029D0006E672042756D702044697669736F72204E
:1029E0003C20310A00020204000048430000374343
:1029F000000039430000A0400000A040000000405B
:102A00000000000100000001000080005555550045
:102A10000000400033333300AAAA2A004992240060
:102A200000002000C7711C0099991900D1451700BA
:102A3000555515003BB11300244912001111110026
:102A4000000010000F0F0F00E3380E0043790D0057
:102A5000CCCC0C00C3300C00E8A20B0064210B00AE
:102A6000AAAA0A00703D0A009DD80900427B09000D
:102A700092240900DCD3080088880800104208006E
:102A800000000800F0C107008787070075500700A5
:102A9000711C07003EEB0600A1BC06006990060011
:102AA00066660600703E06006118060017F4050011
:102AB00074D105005BB00500B2900500627205009C
:102AC0005555050078390500B81E050005050500B7
:102AD0004EEC040087D40400A1BD040090A70400BC
:102AE00049920400C17D0400EE690400C756040049
:102AF000444404005C320400082104004110040036
:102B0000000004003FF00300F8E0030026D20300B9
:102B1000C3C30300CCB503003AA803000A9B03001B
:102B2000388E0300C08103009F750300D069030045
:102B3000505E03001D53030034480300913D030021
:102B40003333030016290300381F030097150300D1
:102B5000300C0300030303000BFA020049F10200EA
:102B6000BAE802005CE002002DD802002DD002007D
:102B700059C80200B0C0020031B90200DAB1020047
:102B8000AAAA0200A0A30200BC9C0200FA950200BF
:102B90005C8F0200DF88020082820200457C020016
:102BA0002776020027700200436A02007C6402005C
:102BB000D05E02003F590200C8530200FFFDFCFA3C
:102BC000F8F6F4F2F0EEECEAE9E7E5E3E1E0DEDC6A
:102BD000DAD9D7D5D4D2D0CFCDCBCAC8C7C5C3C216
:102BE000C0BFBDBCBAB9B7B6B4B3B2B0AFADACAA92
:102BF000A9A8A6A5A4A2A1A09E9D9C9A99989795E4
:102C0000949392908F8E8D8B8A8988878684838215
:102C100081807F7E7D7B7A79787776757473727127
:102C2000706F6E6D6C6B6A6968676665646362611C
:102C3000605F5E5D5C5B5A59585857565554535205
:102C40005150504F4E4D4C4B4A4A494847464645D5
:102C50004443424241403F3E3E3D3C3B3B3A393893
:102C60003837363535343332323130302F2E2E2D41
:102C70002C2B2B2A292928272726252524232322E4
:102C8000212120201F1E1E1D1C1C1B1B1A19191878
:102C900018171616151514131312121111100F0F01
:102CA0000E0E0D0D0C0C0B0A0A0909080807070681
:102CB0000605050404030302020100000000484366
:102CC000000037430000394300000000000000000E
:102CD0000000000053657474696E67732053746F4D
:102CE00072656400290A002062797465733B206371
:102CF0007263200053657474696E67732053746F38
:102D000072656420280048617264636F64656420A2
:102D100044656661756C742053657474696E67737D
:102D2000204C6F616465640A0020286D6D290020C5
:102D30003B204C6576656C696E67200020204D3421
:102D400032302053004D65736820426564204C6525
:102D500076656C696E6700204600204200204800BE
:102D600020204D3134352053004D61746572696106
:102D70006C2068656174757020706172616D657436
:102D80006572730020204D393030204B004C696E45
:102D900065617220416476616E6365002020473270
:102DA00039205334205A00204A002020473239204D
:102DB000533320490020204D3134392043203B201B
:102DC000556E69747320696E2043656C7369757301
:102DD0000A0054656D706572617475726520556E78
:102DE000697473002020473231203B004C696E65C6
:102DF000617220556E69747300454550524F4D20E5
:102E00006461746173697A65206572726F722E0AEB
:102E100000290A002062797465733B206372632085
:102E2000002073746F7265642073657474696E67D3
:102E300073207265747269657665642028002028A5
:102E400063616C63756C6174656429210A002021DB
:102E50003D2000454550524F4D20435243206D695F
:102E6000736D61746368202D202873746F726564BC
:102E70002920002053697A653A2000496E646578FC
:102E80003A200000009643000096430000A0400056
:102E900000C8413914A0423914A042713DC8430012
:102EA00080CF43B80B0000B80B000064000000F4B2
:102EB000010000204D61726C696E3D563835290A5B
:102EC00000454550524F4D2076657273696F6E20F4
:102ED0006D69736D617463682028454550524F4D8C
:102EE0003D0024F4D43050C38E20C2A24017828B00
:102EF0007011127A910D816CD90AA861E108C75846
:102F00006607615143061E4B5D05C145A7041A4182
:102F10001104093D9803713931034036DB026533F2
:102F20009102D4305402802E1D02632CEE01752ACA
:102F3000C501B028A001102781018F2564012B2431
:102F40004B01E0223401AC211F018D200D01801FB7
:102F5000FC00841EED00971DDF00B81CD200E61BAC
:102F6000C600201BBC00641AB200B219A8000A19DE
:102F7000A0006A189900D117910040178B00B51670
:102F8000840031167E00B31579003A157300C7141A
:102F90006F0058146A00EE1366008813630025134F
:102FA0005E00C7125B006C12570015125400C1116D
:102FB000510070114F0021114B00D61049008D10A7
:102FC00047004610440002104200C00F4000800F2E
:102FD0003E00420F3C00060F3B00CB0E3800930E24
:102FE00037005C0E3500270E3400F30D3200C10DA2
:102FF0003100900D3000600D2E00320D2D00050DBA
:103000002C00D90C2B00AE0C2900850C29005C0C7F
:103010002700350C27000E0C2600E80B2400C40BFB
:103020002400A00B23007D0B23005A0B2100390B39
:103030002100180B2000F80A1F00D90A1E00BB0A45
:103040001E009D0A1D00800A1D00630A1C00470A1D
:103050001B002C0A1B00110A1A00F7091A00DD09CF
:103060001900C4091900AB091900920917007B095E
:103070001800630917004C091600360916002009CC
:1030800016000A091500F5081500E0081400CC0820
:103090001400B8081400A4081400900813007D0858
:1030A00012006B081300580812004608120034087A
:1030B0001100230811001208110001081100F00787
:1030C0001000E0071000D0071000C0071000B00784
:1030D0000F00A107100091070E0083070F0074076F
:1030E0000F0065070E0057070E0049070E003B074B
:1030F0000D002E070E0020070D0013070D00060718
:103100000D00F9060C00ED060D00E0060C00D406DB
:103110000C00C8060C00BC060C00B0060C00A4068F
:103120000B0099060C008D060B0082060B0077063B
:103130000B006C060B0061060A0057060B004C06DC
:103140000A0042060A0038060A002E060A00240673
:103150000A001A060A001006090007060A00FD0503
:103160000900F4050900EB050900E2050900D9058D
:103170000900D0050900C7050900BE050900B5050D
:103180000800AD050800A50509009C050800940588
:1031900008008C050800840508007C0508007405FB
:1031A00008006C050700650508005D050700560569
:1031B00008004E05070047050700400508003805D0
:1031C0000700310507002A050700230507001C0535
:1031D0000600160507000F05070008050600020592
:1031E0000700FB040600F5040700EE040600E804EF
:1031F0000600E2040700DB040600D5040600CF0445
:103200000600C9040600C3040600BD040600B70496
:103210000600B1040500AC040600A6040600A004E4
:1032200005009B04060095040500900406008A042E
:10323000050085040500800406007A040500750475
:103240000500700405006B040500660405006104B8
:1032500005005C04050057040500520405004D04F8
:10326000050048040500430405003E0404003A0438
:10327000050035040500300404002C040500270473
:103280000400230405001E0404001A0404001604AC
:103290000500110404000D040400090405000404E1
:1032A000040000040400FC030400F8030400F40319
:1032B0000400F0030400EC030400E8030400E4034A
:1032C0000400E0030400DC030400D8030400D4037A
:1032D0000400D0030400CC030400C8030300C503AA
:1032E000030024F404D9201BC40C5C0E9804C40908
:1032F0005F0265077101F405F900FB04B30048049F
:103300008700C10369005803550003034500BE024E
:103310003A008402310053022A00290225000402E7
:103320002000E4011C00C8011900AF01170098013A
:10333000140084011300710110006101100051019B
:103340000E0043010D0036010B002B010B00200184
:103350000B00150109000C01090003010800FB0026
:103360000800F3000800EB000700E4000600DE00A0
:103370000600D8000600D2000600CC000500C700F9
:103380000500C2000500BD000400B9000400B5003E
:103390000400B1000400AD000400A9000400A50071
:1033A0000300A20003009F0004009B00030098009C
:1033B00003009500020093000300900003008D00BD
:1033C00002008B00030088000200860002008400D7
:1033D0000300810002007F0002007D0002007B00EC
:1033E00002007900020077000100760002007400FC
:1033F000020072000100710002006F0002006D0007
:1034000001006C0002006A00010069000200670010
:103410000100660001006500010064000200620016
:10342000010061000100600001005F0002005D001A
:1034300001005C0001005B0001005A00010059001E
:10344000010058000100570001005600010055001E
:10345000010054000100530000005300010052001D
:10346000010051000100500001004F0001004E001A
:1034700000004E0001004D0001004C0001004B0017
:1034800000004B0001004A00010049000100480013
:10349000000048000100470001004600000046000F
:1034A0000100450000004500010044000100430008
:1034B0000000430001004200000042000100410002
:1034C000000041000100400001003F0000003F00FB
:1034D00001003E0000003E0001003D0000003D00F4
:1034E00001003C0000003C0000003C0001003B00EB
:1034F00000003B0001003A0000003A0001003900E2
:1035000000003900010038000000380000003800D9
:1035100001003700000037000100360000003600CF
:1035200000003600010035000000350000003500C5
:1035300001003400000034000000340001003300BA
:1035400000003300000033000100320000003200B0
:1035500000003200010031000000310000003100A5
:1035600001003000000030000000300001002F009A
:1035700000002F0000002F0000002F0001002E008F
:1035800000002E0000002E0001002D0000002D0084
:1035900000002D0000002D0001002C0000002C0078
:1035A00000002C0000002C0001002B0000002B006C
:1035B00000002B0000002B0001002A0000002A0060
:1035C00000002A0000002A00010029000000290054
:1035D0000000290000002900000029000100280047
:1035E000000028000000280000002800000028003B
:1035F000010027000000270000002700000027002E
:103600000000270001002600000026000000260020
:103610000000260000002600010025000000250013
:103620000000250000002500000025000000250006
:1036300001002400000024000000240000002400F9
:1036400000002400010023000000230000002300EC
:1036500000002300000023000000230000002300DE
:1036600001002200000022000000220000002200D1
:1036700000002200000022000100210000002100C3
:1036800000002100000021000000210000002100B6
:1036900000002100010020000000200000002000A8
:1036A000000020000000200000002000000020009A
:1036B0000000200001001F0000001F0000001F008C
:1036C00000001F0000001F0000001F0000001F007E
:1036D00001001E0000001E0000001E0000001E0071
:1036E0000000232C0000B8220000561800003A0FFA
:1036F0000000B8080000B1040000710200003E01A3
:10370000000020436F756E7420583A0042656400D3
:103710004531004500626564002C2073797374653F
:103720006D2073746F7070656421204865617465E5
:10373000725F49443A200048656174696E672046AB
:1037400061696C65640048656174696E67206661D3
:10375000696C65640070012C0190012701B00122A1
:1037600001C0011D01F00118011002130130020E09
:10377000016002090190020401C002FF000003FA87
:10378000004003F5008003F000D003EB002004E6C6
:10379000007004E100E004DC004005D700C005D261
:1037A000004006CD00D006C8008007C3003008BE28
:1037B00000F008B900C009B400B00AAF00B00BAA0D
:1037C00000D00CA500000EA000500F9B00C010966A
:1037D000005012910000148C00C0158700B01782B1
:1037E00000B0197D00D01B7800001E730040206ED1
:1037F0000090226900F024640040275F0090295A5D
:1038000000E02B5500102E500020304B00103246A7
:1038100000E033410090353C0010373700703832FB
:1038200000A0392D00B03A2800A03B2300603C1EC8
:1038300000103D1900903D1400103E0F00703E0A2C
:1038400000C03E0500003F0000403FFBFF803FF608
:10385000FFC03FF1FF4572723A204D415854454D2B
:1038600050004D415854454D50207472696767654A
:10387000726564004572723A204D494E54454D5070
:10388000004D494E54454D5020747269676765720A
:10389000656400544845524D414C2052554E4157A5
:1038A000415900546865726D616C2052756E617784
:1038B000617900202F002042403A0020403A002049
:1038C000573A007C3C3E5E2B3D3F2F5B5D3B2C2AF4
:1038D000225C0043616E6E6F74206F70656E2073A2
:1038E00075626469722000534420496E69742046F1
:1038F00061696C0053442063617264206F6B0A003D
:103900006F70656E526F6F74206661696C65640AD2
:1039100000766F6C756D652E696E697420666169DD
:103920006C65640A004E6F20534420636172640A20
:10393000000A4D3234004D3233202573002E0A0028
:103940006F70656E206661696C65642C2046696CD9
:10395000653A200046696C652073656C6563746523
:10396000640A002053697A653A200046696C652034
:103970006F70656E65643A2000454E442053554291
:10398000524F5554494E450A002220706F73002251
:1039900020706172656E743A2200535542524F5541
:1039A00054494E452043414C4C2074617267657404
:1039B0003A220053756263616C6C204F76657266C3
:1039C0006C6F77004578636565646564206D617828
:1039D00020535542524F5554494E452064657074EA
:1039E000683A0057726974696E6720746F2066695F
:1039F0006C653A2000667265736800646F696E6773
:103A0000002066696C653A20004E6F7720002F61B8
:103A100075746F25632E6700FFE0FFD1AFFF32FFA3
:103A2000D0FFFEFFE0FFD1AEFFD0FFFEFFE0FFD1F1
:103A30001000FFFEFFD0FFE0FFC1FFD1AED580A890
:103A40003FD300408D142002A1C8DA1281CFD9F1F2
:103A5000DB402EA4A6AFFFD0FFFE026D61726C6941
:103A60006E66772E6F7267006275676669782D32B1
:103A70002E302E78001FFFFFFFFFFFFF60000000C9
:103A80000001FF400000000000FF80000000000077
:103A90007F83CF00000C303F87FF80000C301F86F3
:103AA0007980000C000F8C30C7838C30E78C30CFCE
:103AB000C7CC31F38C30DCECEC33B98C30D86C6C87
:103AC00033198C30D06C0C33198C30D86C0C331902
:103AD0008C30DC6C0E3B198C30CF7C079F198C30FE
:103AE000C77C038F19400000000000026000000046
:103AF0000000061FFFFFFFFFFFF800000000300E70
:103B00000100C00E0A00500F1400D00F1E006010FC
:103B10002800E010320070113C00F01146007012D5
:103B2000500000135A008013640000146E009014BB
:103B300078001015820090158C00101696009016D3
:103B4000A0001017AA009017B4001018BE0090181B
:103B5000C8001019D2009019DC00101AE600801A73
:103B6000F000001BFA00801B0401F01B0E01701C0A
:103B70001801F01C2201601D2C01E01D3601501EB1
:103B80004001D01E4A01401F5401B01F5E01302089
:103B90006801A020720110217C0190218601002281
:103BA00090016026F401902A5802802EBC02503207
:103BB0002003E03584035039E803803C4C04202086
:103BC000506C616E6E65724275666665724279749C
:103BD00065733A20002046726565204D656D6F72F1
:103BE000793A200020436F6D70696C65643A204F0C
:103BF000637420323920323032310A00204C617334
:103C00007420557064617465643A20323032312D0D
:103C100031302D3239207C20417574686F723A2022
:103C20002844656E65746575732C31302E32392EDB
:103C300032303231290A004D61726C696E20627532
:103C4000676669782D322E302E780A0020536F6611
:103C500074776172652052657365740A002057613C
:103C6000746368646F672052657365740A0020424C
:103C7000726F776E206F75742052657365740A00D9
:103C80002045787465726E616C2052657365740AA4
:103C900000506F77657255700A0073746172740A10
:103CA00000473237004D31303031006F6B006572A4
:103CB000726F722077726974696E6720746F206604
:103CC000696C650A00446F6E6520736176696E6782
:103CD0002066696C652E0A004D323900456E6473AA
:103CE000746F70730025532025632025632025639E
:103CF00020256300205A3A0020593A0020583A0003
:103D0000656E6473746F7073206869743A20000084
:103D1000000A0B02090C0D0E080703040100000045
:103D20000000000000000000000000000000000093
:103D30000000000000000000000000121110000050
:103D40000000000000000000000000000000000073
:103D50000000000000000000000000000000000063
:103D60000000000000004D6F76652025736D6D002A
:103D70004D6F766520302E316D6D004D6F7665206C
:103D8000316D6D004D6F76652031306D6D004D6F7A
:103D900076652041786973004D6F766520457874AB
:103DA0007275646572004D6F7665205A004D6F76AE
:103DB000652059004D6F7665205800FFFFFF486F62
:103DC0006D65202573257325732046697273740011
:103DD0004E334453504143452057616E68616F2014
:103DE00044362B424D2052656164792E0050726931
:103DF0006E74696E672E2E2E005072696E7420509C
:103E0000617573656400220A00556E6B6E6F776E84
:103E100020636F6D6D616E643A20220020450020A2
:103E20005A0020590020204D393220580053746523
:103E300070732070657220756E697400DB0FC93F66
:103E400045BCDA3F8FB30240FCF0274056946140F6
:103E5000FE4B9B4084A5D840E0231841346A56416C
:103E6000E859974164DBD5416E271742B4B75542F4
:103E7000CE1A9742C8AED542B5885A43D40684BFFD
:103E8000A65FA7BF7443E0BF10B11AC01C2C58C076
:103E9000E8F697C0B849D6C04E4E17C124D355C1D5
:103EA000802497C1A0B5D5C1121A17C244AE55C21D
:103EB000781797C26CACD5C267885AC320746F6FED
:103EC000206C6F6E6720657874727573696F6E20F1
:103ED00070726576656E7465640A0020636F6C6449
:103EE00020657874727573696F6E2070726576657F
:103EF0006E7465640A006F6B0A00526573656E64C8
:103F00003A200000002200250028002B002E00315E
:103F100000340002010000050108010B010000212E
:103F200000240027002A002D00300033000101008A
:103F300000040107010A0105050505070508080831
:103F400008020202020A0A0808040404040101012A
:103F50000101010101030303030303030304070732
:103F6000070C0C0C0C0C0C0C0C02020202060606D0
:103F700006060606060B0B0B0B0B0B0B0B07070AB3
:103F80000A0A0A0A0A0505050404040808010210C1
:103F90002020080810204010204080020102010863
:103FA0000402010102040810204080804020100813
:103FB000040201800402018040201008040201086C
:103FC00004020101020408102040800102040810CC
:103FD00020408010080408801020400440801020F9
:103FE00040048020453A00205A3A0020593A0058AF
:103FF0003A002F2F616374696F6E3A00B600DA00E1
:1040000011241FBECFEFD1E2DEBFCDBF00E00CBF59
:1040100013E0A0E0B2E0E2E6FEE502E00BBF02C082
:1040200007900D92AA39B107D9F729E1AAE9B3E0BF
:1040300001C01D92A135B207E1F71FE1CFEFDFE12B
:1040400000E006C021970109802FFE010F94C62BC6
:10405000CE3FD10780E00807A9F70F94DD190D9432
:10406000202F0C9400006091380270913902072EC5
:10407000000C880B990B0F9405252AE037ED43E2DD
:104080005CE30F9464252091FC053091FD0540917F
:10409000FE055091FF050F946425609374027093A0
:1040A000750280937602909377020895809181083B
:1040B000811104C08091C2058093CA08089580913F
:1040C0001B188823C1F0815080931B18ECE4F6E1A3
:1040D000882351F08150990B2BE1289FF001299FF3
:1040E000F00D1124E35FF84E8BE1A1E3B6E10190FE
:1040F0000D928A95E1F720911B18211105C080913E
:10410000261880648093261881E090E0A0E0B0E05B
:10411000211103C080E090E0DC0180936B08909354
:104120006C08A0936D08B0936E081092700881E03F
:104130008093650883E0809373020895CF93DF93A3
:10414000EC01CB01BA010F94052529EC38EC48ECC1
:104150005EE30F94C32C20E030E040E05FE30F9477
:10416000E72B0F94302D6883DF91CF9108950F9442
:10417000302D0F94032520E030E040E251E40F940D
:10418000642520E030E040EA50E40F94E72B20E083
:1041900030E040E251E40F94C32C0F942B2D9B018F
:1041A00060E2203187E2380730F0C90160E177E250
:1041B0000F949F2B605D60937508283E83E038075D
:1041C000D0F1C90168EE73E00F949F2BCB016AE038
:1041D00070E00F949F2B805D8093760880E22436F8
:1041E000310558F0C90164E670E00F949F2BCB01B4
:1041F0006AE070E00F949F2B805D8093770880E2E7
:104200002A30310558F0EAE0F0E0C901BF010F940F
:104210009F2BCB01BF010F949F2B805D809378086B
:10422000C9016AE070E00F949F2B805D809379084C
:1042300085E798E0089580E2CFCF8F929F92AF926A
:10424000BF92CF92DF92EF92FF92CF936B017C01EE
:1042500020E030E0A9010F94FF2487FD9FC06DEBA3
:1042600077E386E095E3A70196010F94E72B6B01B6
:104270007C0120E030E040E251E40F94642520E02E
:1042800030E048EC52E40F9464254B015C0120E0DF
:1042900030E0A901C701B6010F94FF2420E030E00F
:1042A00040EA50E487FF04C020E030E040EA50ECF0
:1042B000C501B4010F94E72B20E030E040E251E467
:1042C0000F94C32C0F942B2D6B017C018BE2F7FE16
:1042D00009C0F094E094D094C094C11CD11CE11C9E
:1042E000F11C8DE280937308C701B60120E137E22B
:1042F00040E050E00F944B2B8AE0882E912CA12CAB
:10430000B12CCA01B901A50194010F944B2B605D3A
:1043100060937408C701B60128EE33E040E050E036
:104320000F944B2BCA01B901A50194010F944B2B9B
:10433000605D60937508C701B60124E630E040E097
:1043400050E00F944B2BCA01B901A50194010F94C1
:104350004B2B605D609376088EE280937708C701EF
:10436000B601A50194010F944B2BC62FCA01B901C8
:10437000A50194010F944B2B605D60937808C05D9C
:10438000C093790883E798E0CF91FF90EF90DF909A
:10439000CF90BF90AF909F908F9008956DEB77E393
:1043A00086E095EB60CF8F929F92AF92BF92CF92B3
:1043B000DF92EF92FF92CF936B017C0120E030E01F
:1043C000A9010F94FF2487FDAAC06DEB77E386E077
:1043D00095E3A70196010F94E72B6B017C0120E088
:1043E00030E0A9010F94FF2487FF9EC0C701B601EA
:1043F000905820E030E040E251E40F94642520E042
:1044000030E040E251E40F94642520E030E040EADF
:1044100050E40F94E72B20E030E040E251E40F94A9
:10442000C32C0F942B2D6B017C0180E280937308C9
:1044300060E280E1C81687E2D806E104F1048CF05E
:10444000C701B60120E137E240E050E00F944B2B6A
:10445000CA01B9012AE030E040E050E00F944B2B54
:10446000605D6093740860E288EEC81683E0D80649
:10447000E104F1048CF0C701B60128EE33E040E01E
:1044800050E00F944B2BCA01B9012AE030E040E024
:1044900050E00F944B2B605D6093750860E284E6FA
:1044A000C816D104E104F1048CF0C701B60124E67A
:1044B00030E040E050E00F944B2BCA01B9012AE0F4
:1044C00030E040E050E00F944B2B605D6093760845
:1044D0008AE0882E912CA12CB12CC701B601A50130
:1044E00094010F944B2BC62FCA01B901A501940169
:1044F0000F944B2B605D609377088EE28093780871
:10450000C05DC093790883E798E0CF91FF90EF906A
:10451000DF90CF90BF90AF909F908F9008956DEBFC
:1045200077E386E095EB55CF20E030E040E251E4C0
:10453000C701B60162CF8F929F92AF92BF92CF9286
:10454000DF92EF92FF92CF936B017C0120E030E08D
:10455000A9010F94FF2487FFA3C06DEB77E386E0EA
:1045600095EBA70196010F94E72B6B017C0120E0EE
:1045700030E040E251E40F94642520E030E048EC64
:1045800052E40F9464254B015C0120E030E040E2EE
:1045900051ECC701B6010F94FF24181654F420E023
:1045A00030E048EC52E4C701B6010F940E2E87FDAF
:1045B0008BC020E030E0A901C701B6010F94FF24B1
:1045C00087FF73C060E070E080EA90ECA501940181
:1045D0000F94E72B20E030E040E251E40F94C32C2D
:1045E0000F942B2D6B017C01F7FC64C020E137E2B6
:1045F00040E050E00F944B2BCA01B9012AE030E0B3
:1046000040E050E00F944B2B605D60937408C7014D
:10461000B60128EE33E040E050E00F944B2B9AE0D7
:10462000892E912CA12CB12CCA01B901A5019401AC
:104630000F944B2B605D60937508C701B60124E6AB
:1046400030E040E050E00F944B2BCA01B901A501C6
:1046500094010F944B2B605D609376088EE28093FB
:104660007708C701B601A50194010F944B2BC62F03
:10467000CA01B901A50194010F944B2B605D6093B1
:104680007808C05DC093790884E798E0CF91FF90E7
:10469000EF90DF90CF90BF90AF909F908F90089554
:1046A0006DEB77E386E095E35CCF60E070E080EA55
:1046B00090E48CCFF094E094D094C094C11CD11CB1
:1046C000E11CF11C6DE2A1CF20E030E0A901C7019F
:1046D000B6010F94FF2487FF6AC060E070E080EAB3
:1046E00090ECA50194010F94E72B20E030E040E22C
:1046F00051E40F94C32C0F942B2D4B015C0120E04F
:1047000030E0A901C701B6010F940E2E87FD0BC042
:1047100020E030E040E251E4C701B6010F94FF24ED
:1047200060E287FD13C0B7FC47C0C501B40128EEA5
:1047300033E040E050E00F944B2BCA01B9012AE06E
:1047400030E040E050E00F944B2B605D60937508C3
:10475000C501B40124E630E040E050E00F944B2B5B
:104760008AE0C82ED12CE12CF12CCA01B901A70195
:1047700096010F944B2B605D609376088EE28093D8
:104780007708C501B401A70196010F944B2BC62FE2
:10479000CA01B901A70196010F944B2B605D60938C
:1047A0007808C05DC093790885E798E06FCF60E036
:1047B00070E080EA90E495CFB094A09490948094B7
:1047C000811C911CA11CB11C6DE2C0CFCF93DF9363
:1047D000EC01CB01BA010F94052520E030E040E266
:1047E00051E40F94C32C688379838A839B83DF9180
:1047F000CF910895CF93DF93EC01CB01BA010F94D1
:10480000052520E030E040E251E40F94C32C68839A
:1048100079838A839B83DF91CF9108950F94052537
:1048200020E030E040E251E40F94C32CBCCDCF93A4
:10483000DF93EC01CB01BA010F94052520E030E0B5
:1048400048EC52E40F94C32C688379838A839B835A
:10485000DF91CF910895CF93DF93EC01CB01BA01A3
:104860000F94052520E030E048EC52E40F94C32C6F
:10487000688379838A839B83DF91CF9108950F9416
:10488000052520E030E048EC52E40F94C32CD5CC51
:10489000CF93DF93EC01CB01BA010F9405250F9460
:1048A0002B2D79836883DF91CF910895CF93DF9388
:1048B000EC01CB01BA010F940525688379838A83C3
:1048C0009B83DF91CF910895CF93DF93EC01CB01D0
:1048D000BA010F94052520E030E04AE754E40F9434
:1048E000C32C688379838A839B83DF91CF9108955A
:1048F0000F94052520E030E048EC52E40F94C32CDF
:104900001ACECF93DF93EC01CB01BA010F940525AA
:104910002AE037ED43E25CE30F94C32C0F94302D73
:10492000688379838A839B83DF91CF9108950F9465
:1049300005252AE037ED43E25CE30F94C32C17CC46
:104940002CEA35EC47E25EE36091AC057091AD0571
:104950008091AE059091AF050F94C32C60938106B2
:1049600070938206809383069093840608952CEAC0
:1049700035EC47E25EE36091B0057091B10580913E
:10498000B2059091B3050F94642560937D067093F2
:104990007E0680937F069093800608952CEA35EC7E
:1049A00047E25EE36091AC057091AD058091AE0584
:1049B0009091AF050F94C32C60938106709382068B
:1049C000809383069093840608952CEA35EC47E2A1
:1049D0005EE36091B0057091B1058091B205909150
:1049E000B3050F94642560937D0670937E068093D3
:1049F0007F06909380060895FC0184910895FC0140
:104A000080810895E091A505E63028F581E08E0FBC
:104A10008093A50540916B0850916C0860916D08DA
:104A200070916E0820917008909164088091C10582
:104A300039E0E39FF0011124E05AFA4FA091B21639
:104A4000B091B316B183A08342835383648375838B
:104A50002683978380870895FC01A081B1811C92F1
:104A6000A281B3818C918F5F8C930280F381E02DC2
:104A700090818CE0989F800D1124E4EBF6E113AE59
:104A800084AF0895009751F0FC0180E09191992343
:104A900031F0907C9038D1F38F5FF8CF80E00895AB
:104AA00090E080E00895CF93DF93DB01F9019C91C2
:104AB0009130C1F0943080F094509C938830D1F4C0
:104AC00080819181009771F0019791838083480FD5
:104AD000591FEA01188206C08C3539F49C5F9C93FB
:104AE000943041F4DF91CF9108958B3339F781E011
:104AF0008C93F8CF20813181B9016F5F7F4F718333
:104B00006083420F531FEA018883808191818F3532
:104B100091056CF7E7CF0F931F9381E00091221866
:104B200010912318209124183091251840911E18B7
:104B300050911F18609120187091211804171507C3
:104B40002607370708F480E01F910F91089590E041
:104B500080E00895282F9091EC04833021F495FD96
:104B60000FC094FD0FC0892F90E0B0E0A0E004C01A
:104B7000B695A795979587952A95D2F78170089550
:104B800081E0089580E008958091080584FD0BC0C0
:104B900080910A0587FD07C090910B05937081E015
:104BA00019F480E0089581E008952FEB280F2A3151
:104BB00008F047C0E22FF0E08091080590910905C8
:104BC000A0910A05B0910B0504C0B695A7959795DD
:104BD00087952A95D2F780FD02C081700895E25131
:104BE000FB4FE081EE2341F1809197089091980866
:104BF000E80FF92FF11D808190ED980F9A3030F079
:104C00008E3251F4818180538A3098F4F093EB0412
:104C1000E093EA0481E008958D3211F08B3249F47B
:104C2000818190ED980F9A3088F38E3211F4828151
:104C3000EACFF0E0E0E0EACF1092EB041092EA0451
:104C4000E9CF80E00895B1DF882341F081E0209131
:104C5000EA043091EB04232B09F480E008950A9ACA
:104C6000129A1092CF07089580919108813069F0CF
:104C70009091261892FB882780F992FF07C097FB36
:104C8000882780F991E08927089581E0089580912F
:104C90007C1690917D16891B8F7029F48091860671
:104CA000811103C0E1CF81E0089580E008956F9203
:104CB0007F928F929F92AF92BF92CF92DF92EF92AC
:104CC000FF920F931F93CF93DF93CDB7DEB72C974F
:104CD0000FB6F894DEBF0FBECDBF3B0140E050E001
:104CE00068EC72E44D835E836F83788740E050E028
:104CF00060EA70E449875A876B877C878130A9F125
:104D0000823009F466C020E030E040E050E4609179
:104D1000D4157091D5158091D6159091D7150F9413
:104D2000E72B4B018C0120E030E049E353E40F9482
:104D30000E2E181624F4812C912C09E313E4F301B0
:104D4000A084B184C284D3849401A801B501C601B2
:104D50000F940E2E181614F054016801C501D601E7
:104D600089839A83AB83BC8357C0BE01675F7F4F43
:104D7000C30108960E94F5DAE090D415F090D5159D
:104D80000091D6151091D715F30124813581468104
:104D900057816081718182819381FE0135966F0117
:104DA0000E9440DA0E94ABDC2C960FB6F894DEBF6E
:104DB0000FBECDBFDF91CF911F910F91FF90EF906C
:104DC000DF90CF90BF90AF909F908F907F906F902B
:104DD0000895F30120853185428553856091D4156E
:104DE0007091D5158091D6159091D7150F94E72B1A
:104DF0006B017C0120E030E049E353E40F94FF2491
:104E000087FD06C0C12CD12C89E3E82E83E4F82E5F
:104E1000C982DA82EB82FC82BE01675F7F4FCE01DE
:104E20000196A8CF8F929F92AF92BF92EF92FF927E
:104E30000F931F93CF93DF93EC018B01E42EF22E9F
:104E40008091B2169091B3168C179D07C9F125E693
:104E5000C13DD20709F03FC08A5C9F4571F40F94B1
:104E6000E00D6E517B4F8F4F9F4F6093A60570935F
:104E7000A7058093A8059093A905D093B316C09376
:104E8000B21630E020E000936B0810936C0820937A
:104E90006D0830936E08E0927008F0926408CA5C66
:104EA000DF4521F41092C1051092A50582E08093A0
:104EB000730281E0809365081092BB051092B405DF
:104EC000DF91CF911F910F91FF90EF90BF90AF9026
:104ED0009F908F9008952FE5CA3CD20771F6815DAF
:104EE0009546D1F40F94E00D8090A6059090A7050B
:104EF000A090A805B090A905681979098A099B09AD
:104F000097FF0AC08091ED078770873029F4BFDED4
:104F1000CFE8D7E28111B1CFCAECDFE5AECF20E018
:104F200040E070E060E087EB9AE47CDF81E0809312
:104F3000C1051092C0051092BF05089520E040E021
:104F400070E060E087EB9DE26DCF21E02093C1052A
:104F5000FC0180819181A281B38180932A02909388
:104F60002B02A0932C02B0932D0220E040E070E0D1
:104F700060E0809171089091720854CFCF93DF93D5
:104F800000D01F92CDB7DEB78DEC9CECACECBCE34F
:104F900089839A83AB83BC83CE010196D6DF0F90C1
:104FA0000F900F900F90DF91CF910895CF93DF93E3
:104FB00000D01F92CDB7DEB78DEC9CECACECBDE31E
:104FC00089839A83AB83BC83CE010196BEDF0F90A9
:104FD0000F900F900F90DF91CF910895CF93DF93B3
:104FE00000D01F92CDB7DEB780E090E0A0E8BFE32D
:104FF00089839A83AB83BC83CE010196A6DF0F9091
:105000000F900F900F90DF91CF910895CF93DF9382
:1050100000D01F92CDB7DEB780E090E0A0E2B1E40F
:1050200089839A83AB83BC83CE0101968EDF0F9078
:105030000F900F900F90DF91CF910895809100060F
:1050400081110CC080913A0290913B02029720910D
:10505000760630917706281739073CF086E595E10A
:105060009093FE078093FD07089520E040E070E0F4
:1050700060E08DE896E7D6CE20E040E070E060E0AA
:105080008AEC9FE5CFCE6111609328024093BA0568
:10509000EFEFE80FEB3008F035C00E2E000CFF0BE1
:1050A0008827EA5AF74D8F4F0D94C62B8328862800
:1050B00061286B286E2871287D287428822877281B
:1050C0007A2882E29AE421E02093C10520E040E0C2
:1050D00070E060E0A7CE88E29AE4F5CF8BE29AE434
:1050E000F2CF8EE29AE4EFCF81E39AE4ECCF84E34F
:1050F0009AE4E9CF87E39AE4E6CF1092B90583E317
:1051000098E4E1CFB9CF8FE19AE4DDCF85E29AE46C
:10511000DACFCF92DF92EF92FF92CF93C82F0F9406
:10512000E00D6B017C0124EA30E74DE75FE360911D
:105130002A0270912B0280912C0290912D020F94E3
:10514000FF2487FD18C08AEF90E0A0E0B0E08C0D4E
:105150009D1DAE1DBF1D8093400590934105A093FA
:105160004205B0934305C0931A02CF91FF90EF9090
:10517000DF90CF90089580E090E0DC01E8CFCF92FF
:10518000DF92EF92FF920F931F930F94E00D009127
:105190001705109118052091190530911A056B011A
:1051A0007C01C01AD10AE20AF30A9701860137FD91
:1051B00011C0209116052095209316056A547C4F46
:1051C0008F4F9F4F609317057093180580931905B3
:1051D00090931A0581E090911605911101C080E02D
:1051E0001F910F91FF90EF90DF90CF900895CF9394
:1051F000DF93C0914908D0914A08209729F1609126
:1052000045087091460880914708909148080F948E
:105210002B2D6E5F7F4F24976C177D07ACF4709336
:105220005106609350060F94E00D60597E4E8E4FEC
:105230009F4F609352067093530680935406909349
:105240005506DF91CF9108951092520610925306A1
:105250001092540610925506F4CF2F923F924F921F
:105260005F926F927F928F929F92AF92BF92CF92F6
:10527000DF92EF92FF920F931F93CF93DF9300D0B3
:1052800000D0CDB7DEB70F94E00D0091D407109198
:10529000D5072091D6073091D707011511052105B3
:1052A000310509F00AC32091A016222309F44AC04F
:1052B000E0919E1621502093A01621E02E0F2093FE
:1052C0009E163091A116231302C010929E1624E060
:1052D000E29FF0011124EE55F94E008111812281E7
:1052E00033810093D0071093D1072093D2073093D6
:1052F000D307600F711F811D911D6093D4077093B8
:10530000D5078093D6079093D7078091D2079091C5
:10531000D307892BB9F08FB78E83F8942090D007EC
:105320003090D1072101712C612C0091D20710918E
:10533000D307809167028231F1F08F3F09F495C065
:105340009E819FBF26960FB6F894DEBF0FBECDBFDD
:10535000DF91CF911F910F91FF90EF90DF90CF9051
:10536000BF90AF909F908F907F906F905F904F9085
:105370003F902F900895EAE5FAE394919D8397FD7D
:10538000DFCF82E10F94D6058D81882321F09D81A6
:10539000923009F0BCC14801B12CA12C60E072E14F
:1053A0008AE790E0A50198010F944B2B29833A835B
:1053B0004B835C8369017A0121E0C21AD108E108BC
:1053C000F1088FEFC816D104E104F10409F00CF4E0
:1053D0006EC160E472E48FE090E0A50198010F9443
:1053E0004B2B69017A0191E0C91AD108E108F10853
:1053F0002D81223009F00FC18FEFC816D104E104CE
:10540000F10409F00CF4BFC260E970ED83E090E0B4
:10541000A50198010F944B2B69017A0191E0C91AFB
:10542000D108E108F10883E02FEFC216D104E104AE
:10543000F10409F00CF4A0C268E478EE81E090E099
:10544000A50198010F944B2B69017A0181E0C81ADC
:10545000D108E108F1089FEFC916D104E104F10475
:1054600011F00CF0FCC084E087C282E180936702F7
:10547000EAE5FAE324912D83822F2F3F09F460CFD0
:10548000223009F468C058F4222379F1213009F45C
:1054900044C087FD55CF82E10F94D60578CF9D811A
:1054A000943009F49AC008F478C0953091F71092BE
:1054B00020011092210180912101886080932101B7
:1054C00080912101816080932101E9E4FFE3E4916F
:1054D000F0E0EE0FFF1FED5FF04C85919491EFE946
:1054E000FFE3E491E093C6054CCF14BC15BC84B532
:1054F000826084BD85B5816085BDE9E4FFE3E49108
:10550000F0E0EE0FFF1FED5FF04C85919491EFE915
:10551000FFE3E491E093CA0534CF1092800010922B
:10552000810080918100886080938100809181005A
:10553000816080938100E9E4FFE3E491F0E0EE0F05
:10554000FF1FED5FF04C85919491EFE9FFE3E4914B
:10555000E093C90516CF1092B0001092B10080916F
:10556000B00082608093B0008091B1008160809330
:10557000B100E9E4FFE3E491F0E0EE0FFF1FED5F1F
:10558000F04C859194919093C8078093C707EFE9F9
:10559000FFE3E491E093C907F4CE109290001092DB
:1055A000910080919100886080939100809191009A
:1055B000816080939100E9E4FFE3E491F0E0EE0F75
:1055C000FF1FED5FF04C85919491EFE9FFE3E491CB
:1055D000E093C80523E02D83D4CE1092A000109252
:1055E000A1008091A10088608093A1008091A1001A
:1055F00081608093A100E9E4FFE3E491F0E0EE0F25
:10560000FF1FED5FF04C85919491EFE9FFE3E4918A
:10561000E093C705B6CE8FEFC816D104E104F104BC
:1056200009F00CF472C068E478EE81E090E0A50126
:1056300098010F944B2B69017A0191E0C91AD108A6
:10564000E108F1082D81222309F462C12FEFC2166F
:10565000D104E104F10411F00CF063C104CF64E261
:1056600074EF80E090E0A50194010F944B2B690149
:105670007A0181E0C81AD108E108F10885E09FEFBE
:10568000C916D104E104F10409F008F475C162E11E
:105690007AE780E090E0A50194010F944B2B69011B
:1056A0007A0181E0C81AD108E108F1084CC181E013
:1056B0002D81211161C195B5987F892B85BD2FEF73
:1056C0003FEFA90145284628472809F048C09D8199
:1056D000923009F4E2C00CF0C9C0992309F4CEC09D
:1056E000913009F02DCED0928900C092880020938D
:1056F000D7053093D8054093D9055093DA058091AA
:105700006F00826080936F001BCE82E0D1CFB12CFE
:10571000A12C60E072E18AE790E0A50198010F9466
:105720004B2B69017A0181E0C81AD108E108F10820
:10573000C114D10491E0E906F104F4F491E02D8163
:10574000213059F580918100887F892B80938100D9
:105750002FEF3FEFA90145284628472821F298015D
:10576000220F331FD1010F94772B28EE33E040E056
:1057700050E00F94292BABCF68E478EE81E090E005
:10578000A50198010F944B2B69017A0181E0C81A99
:10579000D108E108F10893E0D2CF8D818330F9F48C
:1057A00080919100887F892B809391002FEF3FEFAC
:1057B000A90145284628472891F6D0929900C09221
:1057C00098002093D3053093D4054093D50550938A
:1057D000D60580917100826080937100B1CD2D81DA
:1057E000243001F58091A100887F892B8093A1004E
:1057F0002FEF3FEFA90145284628472809F0AFCFF2
:10580000D092A900C092A8002093CF053093D00574
:105810004093D1055093D2058091720082608093AD
:1058200072008ECD8D81853009F049CF80912101A4
:10583000887F892B809321012FEF3FEFA901452815
:105840004628472809F08BCFD0922901C092280121
:105850002093CB053093CC054093CD055093CE05D6
:10586000809173008260809373006ACD8D81843053
:1058700039F20CF4A2CF853039F362CDC7BC209346
:10588000DB053093DC054093DD055093DE05809108
:105890006E00826080936E0053CDC092B30020935F
:1058A000CA073093CB074093CC075093CD07809124
:1058B000700082608093700043CD601B710B820B7F
:1058C000930B97FD3FCD5B981092D4071092D507AC
:1058D0001092D6071092D70735CDC980DA80EB80B9
:1058E000FC809AE0F594E794D794C7949A95D1F701
:1058F00021E0C21AD108E108F10885E0DCCE8FEF83
:10590000C816D104E104F10409F038F784E0D3CEDD
:1059100083E09FEFC916D104E104F10409F00CF40F
:10592000CACE62E17AE780E090E0A50194010F948D
:105930004B2B69017A0181E0C81AD108E108F1080E
:105940009D819923E1F286E02FEFC216D104E10494
:10595000F10491F088F0C980DA80EB80FC808AE065
:10596000F594E794D794C7948A95D1F791E0C91A32
:10597000D108E108F10887E09091B100987F892B68
:105980008093B1009CCE82E0F7CF0F931F93CF930B
:10599000DF938C01EB019091A0162091A116921338
:1059A00004C05BDC0E9481B7F6CF80919F1634E083
:1059B000839FF0011124EE55F94E11830083D383A8
:1059C000C2839F5F9093A0168F5F281739F0809352
:1059D0009F16DF91CF911F910F91089510929F16FE
:1059E000F8CF63E972E084E690E0CFDF6AEB72E023
:1059F00084E690E0CACF8111F4CF68EB71E084E1D6
:105A000090E0C3CFCF92DF92EF92FF920F931F935C
:105A1000CF93DF9390912802913009F45EC0662302
:105A200051F01092CA041092C6041092C70410924A
:105A3000C8041092C904D82F0F94E00DC090C6047A
:105A4000D090C704E090C804F090C9049B01AC0159
:105A50002C193D094E095F0969017A01F7FC3DC027
:105A6000C091CA04D7FD15C02D2F0D2E000C330B8D
:105A70002C5F3F4F4C2F0C2E000C550B2417350775
:105A800064F134EFC32EDD24D394E12CF12CCD1737
:105A900034F428EEC22E23E0D22EE12CF12CC60ED7
:105AA000D71EE81EF91EC092C604D092C704E09229
:105AB000C804F092C9040C2F017010E084E2809FAA
:105AC000B001819F700D701B112460597C4F82E3DF
:105AD00090E05BDFCF5FC093CA04DF91CF911F914D
